:020000040800F2
:10000000000002205D040008AD040008AD040008F3
:10001000AD040008AD040008AD04000800000000B5
:10002000000000000000000000000000AD04000817
:10003000AD04000800000000AD04000859040008E9
:10004000AD040008AD040008AD040008AD040008CC
:10005000AD040008AD040008AD040008AD040008BC
:10006000AD040008AD040008AD040008AD040008AC
:10007000AD040008AD040008AD040008AD0400089C
:10008000AD040008AD040008AD0400080000000045
:10009000000000000000000000000000AD040008A7
:1000A000AD040008AD040008AD040008AD0400086C
:1000B000AD040008AD040008AD040008AD0400085C
:1000C000AD040008AD040008AD040008AD0400084C
:1000D000AD040008AD040008AD04000800000000F5
:1000E000AD040008AD040008AD04000800000000E5
:1000F000000000000000000000000000AD04000847
:1001000000000000AD040008AD040008AD040008C4
:1001100000000000000000000000000000000000DF
:10012000AD040008AD040008AD040008AD040008EB
:10013000AD04000800000000000000000000000006
:10014000000000000000000000000000AD040008F6
:10015000AD040008AD040008AD040008AD040008BB
:10016000AD040008AD04000800000000000000001D
:10017000000000000000000000000000000000007F
:1001800000000000AD0400080000000000000000B6
:08019000AD040008AD040008F5
:1001980010B5054C237833B9044B13B10448AFF3B9
:1001A80000800123237010BD000000200000000023
:1001B800F804000808B5034B1BB103490348AFF323
:1001C800008008BD0000000004000020F8040008BA
:1001D800034AD2F8883043F47003C2F88830704775
:1001E80000ED00E008B500F041F800F01BF800F061
:1001F800ADF84B2000F000F94B2000F013F9064A47
:100208001369C3F3002305490B701369C3F3402333
:10021800034A1370F3E700BF000002401D000020EE
:100228001C0000204FF0E0231A6922F001021A6135
:100238001A6942F002021A611A6942F004021A614C
:100248005A6902F07F4242F4BB3242F0FF025A611F
:100258009A6902F07F4242F4BB3242F0FF029A618F
:100268001A6942F001021A6170470000354A1368A2
:1002780023F0F80343F08003136000239360314BAD
:100288009B6813F00C0FFAD12E4A136823F0807381
:1002980013602C4B1B6813F0007FFAD1294A1368AE
:1002A80023F410231360274B1B6813F4003FFAD183
:1002B800244B1A6822F480221A601A6842F001025C
:1002C8001A60204B1B6813F0020FFAD01D4B002256
:1002D8005A605A685A605A6842F008025A605A6866
:1002E80042F4C0525A605A6822F480325A605A68FE
:1002F80042F080625A609A6842F002029A609A68F4
:100308009A609A6842F480529A609A689A609A68E9
:1003180022F040429A609A6822F040429A609A68B5
:1003280042F040529A6008490A6842F003020A60A3
:100338001A6842F080721A60024B1B6813F0007F43
:10034800FAD0704700380240003C0240274B1A6B35
:1003580042F001021A635A6C42F001025A64244ABC
:10036800136823F4702343F420231360536A23F0A3
:10037800FF0343F0110353621E4B1A6822F0010277
:100388001A609A6A6FF30F0242F4155242F03F0264
:100398009A62DA6A40F2CF72DA621A6842F0800230
:1003A8001A609A6922F0780242F068029A619A69A2
:1003B80022F4F04242F4D0429A615A6C42F400426C
:1003C8005A641A6A42F011021A625A6B6FF30F02EA
:1003D8005A639A6B6FF30F029A635A6942F00102EB
:1003E8005A611A6842F001021A60704700380240E8
:1003F8000000024000000140642800D96420074A38
:10040800D36A03FB00F0064BA3FB0030536B6FF37A
:100418000F0343EA50135363704700BF00000140C5
:100428001F85EB51642800D96420074AD36A03FB6F
:1004380000F0064BA3FB0030936B6FF30F0343EA06
:1004480050139363704700BF000001401F85EB51B4
:1004580070470000DFF834D00D480E490E4A0023DB
:1004680002E0D458C4500433C4188C42F9D30B4A60
:100478000B4C002301E013600432A242FBD3FFF7C8
:10048800A7FE00F011F8FFF7ADFE7047000002204C
:1004980000000020000000201805000800000020CF
:1004A80020000020FEE7000070B50D4D0D4C641BC8
:1004B800A4100026A64209D10B4D0C4C00F018F8E8
:1004C800641BA4100026A64205D170BD55F8043B54
:1004D80098470136EEE755F8043B98470136F2E7AE
:1004E800100500081005000810050008140500088C
:1004F800F8B500BFF8BC08BC9E467047F8B500BF09
:08050800F8BC08BC9E467047D8
:04051000BD01000821
:040514009901000841
:040000050800045D8E
:00000001FF
