:020000040800F2
:100000000000022089060008D9060008D906000869
:10001000D9060008D9060008D9060008000000002B
:10002000000000000000000000000000D9060008E9
:10003000D906000800000000D9060008B105000834
:10004000D9060008D9060008D9060008D906000814
:10005000D9060008D9060008D9060008D906000804
:10006000D9060008D9060008D9060008D9060008F4
:10007000D9060008D9060008D9060008D9060008E4
:10008000D9060008D9060008D906000800000000BB
:100090000000000000000000000000005D060008F5
:1000A000D9060008D9060008D9060008D9060008B4
:1000B000D9060008D9060008D9060008D9060008A4
:1000C000D9060008D9060008D9060008D906000894
:1000D000D9060008D9060008D9060008000000006B
:1000E000E5050008D9060008D90600080000000050
:1000F000000000000000000000000000D906000819
:1001000000000000D9060008D9060008D90600083A
:1001100000000000000000000000000000000000DF
:10012000D9060008D9060008D9060008D906000833
:10013000D9060008000000000000000000000000D8
:10014000000000000000000000000000D9060008C8
:10015000D9060008D9060008D9060008D906000803
:10016000D9060008D90600080000000000000000C1
:10017000000000000000000000000000000000007F
:1001800000000000D9060008000000000000000088
:08019000D9060008D906000899
:100198000348044B834202D0034B03B1184770470E
:1001A8000000002000000020000000000548064B69
:1001B8001B1AD90F01EBA301491002D0034B03B15D
:1001C80018477047000000200000002000000000D1
:1001D80010B5064C237843B9FFF7DAFF044B13B187
:1001E8000448AFF300800123237010BD00000020F5
:1001F800000000002407000808B5054B1BB105499D
:100208000548AFF30080BDE80840FFF7CFBF00BF47
:10021800000000000400002024070008034AD2F868
:10022800883043F47003C2F88830704700ED00E06E
:1002380008B50D4A136B43F006031363A2F5405249
:10024800D36843F08073D36000F052F800F0BCF834
:1002580000F02BF800F028F94B2000F079F94B203A
:1002680000F08CF9FEE700BF0038024000B500F04E
:100278000700C0F1070CBCF1040F28BF4FF0040CB5
:10028800031D062B0FD9C31E4FF0FF3E0EFA0CF0CC
:1002980021EA000199400EFA03FE22EA0E0241EA21
:1002A80002005DF804FB0023EEE74FF0E0231A6933
:1002B80022F001021A611A6942F002021A611A69EF
:1002C80042F004021A615A6902F07F4242F4BB32DA
:1002D80042F0FF025A619A6902F07F4242F4BB324F
:1002E80042F0FF029A611A6942F001021A617047EE
:1002F8002DE9F0412F4A536C43F4804353642E4E4A
:10030800736923F00F0343F0020373612B4C2368D6
:1003180043F480532360A36843F48053A360DFF859
:10032800A480D8F80C0000221146C0F30220FFF781
:100338009DFF0001C0B2224D85F828034FF4807755
:100348006F60336923F00F0343F0020333612368BE
:100358003B432360A3683B43A360D8F80C0000220A
:100368001146C0F30220FFF781FF0001C0B285F8F3
:1003780017034FF400032B60736923F0F00343F075
:1003880020037361236843F400532360A36843F494
:100398000053A360D8F80C0000221146C0F30220D5
:1003A800FFF764FF0001C0B285F828036F60BDE85D
:1003B800F08100BF0038024000380140003C014095
:1003C80000E100E000ED00E0354A136823F0F8038F
:1003D80043F08003136000239360314B9B6813F054
:1003E8000C0FFAD12E4A136823F0807313602C4B3C
:1003F8001B6813F0007FFAD1294A136823F41023ED
:100408001360274B1B6813F4003FFAD1244B1A687A
:1004180022F480221A601A6842F001021A60204B06
:100428001B6813F0020FFAD01D4B00225A605A685D
:100438005A605A6842F008025A605A6842F4C05238
:100448005A605A6822F480325A605A6842F08062D0
:100458005A609A6842F002029A609A689A609A68AA
:1004680042F480529A609A689A609A6822F04042F0
:100478009A609A6822F040429A609A6842F0405224
:100488009A6008490A6842F003020A601A6842F052
:1004980080721A60024B1B6813F0007FFAD0704715
:1004A80000380240003C0240264B1A6B42F0010221
:1004B8001A635A6C42F001025A64234A136823F4FF
:1004C800702343F420231360536A23F0FF0343F09F
:1004D800110353621D4B1A6822F001021A609A6ACE
:1004E8006FF30F0242F005029A62DA6A40F2E732CD
:1004F800DA621A6842F080021A609A6922F0780279
:1005080042F068029A619A6922F4F04242F4D042B9
:100518009A615A6C42F400425A641A6A42F0110213
:100528001A625A6B6FF30F025A639A6B6FF30F02DA
:100538009A635A6942F001025A611A6842F001024C
:100548001A60704700380240000002400000014075
:10055800642800D96420074AD36A03FB00F0064BDD
:10056800A3FB0030536B6FF30F0343EA501353633D
:10057800704700BF000001401F85EB51642800D977
:100588006420074AD36A03FB00F0064BA3FB003044
:10059800936B6FF30F0343EA50139363704700BFE5
:1005A800000001401F85EB51094B1B6813B1013B4B
:1005B800074A1360074B1B6813B1013B054A1360D8
:1005C800054B1B8813B1013B034A1380704700BFDA
:1005D80024000020200000201E000020174B5B692B
:1005E80013F4805F0ED0164B1B6833B9154A138875
:1005F80001331380124B3C221A60104A536943F4AA
:10060800805353610D4B5B6913F4005F14D00E4B9C
:100618001B6913F4005F0AD00C4B1B883BB90B4BCA
:1006280064221A800A4A137883F001031370034A7C
:10063800536943F400535361704700BF003C0140C5
:100648002000002028000020000802401E00002092
:100658001C000020074A536943F480535361064B3A
:100668001B6833B9054A138801331380024B3C22B7
:100678001A607047003C014020000020280000203C
:10068800DFF834D00D480E490E4A002302E0D45852
:10069800C4500433C4188C42F9D30B4A0B4C0023C2
:1006A80001E013600432A242FBD3FFF7B7FD00F06C
:1006B80011F8FFF7BDFD7047000002200000002080
:1006C8000000002044070008000000202C00002043
:1006D800FEE7000070B50D4D0D4C641BA4100026FC
:1006E800A64209D10B4D0C4C00F018F8641BA4105D
:1006F8000026A64205D170BD55F8043B984701363F
:10070800EEE755F8043B98470136F2E73C07000846
:100718003C0700083C07000840070008F8B500BF80
:10072800F8BC08BC9E467047F8B500BFF8BC08BCCA
:040738009E46704722
:04073C0001020008AE
:04074000D9010008D3
:040000050800068960
:00000001FF
